:020000040800F2
:1000000000000320D50B0008250C0008250C000873
:10001000250C0008250C0008250C00080000000035
:10002000000000000000000000000000250C000897
:10003000250C000800000000250C0008AD23000876
:10004000250C0008250C0008250C0008250C0008CC
:10005000250C0008250C0008250C0008250C0008BC
:10006000250C0008250C0008250C0008250C0008AC
:10007000250C0008250C0008250C0008250C00089C
:10008000250C0008250C0008250C0008250C00088C
:10009000250C0008250C0008250C0008250C00087C
:1000A000250C0008250C0008250C0008250C00086C
:1000B000250C0008250C0008E1230008250C000889
:1000C000250C0008250C0008250C0008250C00084C
:1000D000250C0008C9230008250C0008250C000881
:1000E000250C0008250C0008250C0008250C00082C
:1000F000250C0008250C0008250C0008250C00081C
:10010000250C0008250C0008250C0008250C00080B
:10011000250C0008250C0008250C0008250C0008FB
:10012000ED230008250C0008250C0008250C00080C
:10013000250C0008250C0008250C0008250C0008DB
:10014000250C0008250C0008250C0008250C0008CB
:10015000250C0008250C0008BD230008250C00080C
:10016000250C0008250C0008250C0008250C0008AB
:10017000250C0008250C0008250C000800000000D4
:10018000250C0008250C0008250C0008250C00088B
:10019000250C0008250C0008250C0008250C00087B
:0C01A000D5230008250C0008250C0008E1
:1001B00010B5054C237833B9044B13B10448AFF3A1
:1001C00000800123237010BD700B00200000000090
:1001D00070AF010808B5034B1BB103490348AFF3E7
:1001E000008008BD00000000740B002070AF010803
:1001F000034613F8012B002AFBD1181A0138704767
:1002000081F0004102E000BF83F0004330B54FEAC7
:1002100041044FEA430594EA050F08BF90EA020F34
:100220001FBF54EA000C55EA020C7FEA645C7FEAC7
:10023000655C00F0E2804FEA5454D4EB5555B8BFEA
:100240006D420CDD2C4480EA020281EA030382EA5B
:10025000000083EA010180EA020281EA0303362DED
:1002600088BF30BD11F0004F4FEA01314FF4801CC0
:100270004CEA113102D0404261EB410113F0004FD2
:100280004FEA03334CEA133302D0524263EB430389
:1002900094EA050F00F0A780A4F10104D5F1200E27
:1002A0000DDB02FA0EFC22FA05F2801841F1000182
:1002B00003FA0EF2801843FA05F359410EE0A5F156
:1002C00020050EF1200E012A03FA0EFC28BF4CF087
:1002D000020C43FA05F3C01851EBE37101F000453D
:1002E00007D54FF0000EDCF1000C7EEB00006EEB4A
:1002F0000101B1F5801F1BD3B1F5001F0CD34908D4
:100300005FEA30004FEA3C0C04F101044FEA44522A
:1003100012F5800F80F09A80BCF1004F08BF5FEAB1
:10032000500C50F1000041EB045141EA050130BD91
:100330005FEA4C0C404141EB010111F4801FA4F134
:100340000104E9D191F0000F04BF01460020B1FA89
:1003500081F308BF2033A3F10B03B3F120020CDAC1
:100360000C3208DD02F1140CC2F10C0201FA0CF09F
:1003700021FA02F10CE002F11402D8BFC2F1200C04
:1003800001FA02F120FA0CFCDCBF41EA0C019040BA
:10039000E41AA2BF01EB0451294330BD6FEA040403
:1003A0001F3C1CDA0C340EDC04F11404C4F12002EE
:1003B00020FA04F001FA02F340EA030021FA04F300
:1003C00045EA030130BDC4F10C04C4F1200220FA57
:1003D00002F001FA04F340EA0300294630BD21FA95
:1003E00004F0294630BD94F0000F83F4801306BF5B
:1003F00081F480110134013D4EE77FEA645C18BF4F
:100400007FEA655C29D094EA050F08BF90EA020FE5
:1004100005D054EA000C04BF1946104630BD91EADD
:10042000030F1EBF0021002030BD5FEA545C05D1E0
:100430004000494128BF41F0004130BD14F580041F
:100440003CBF01F5801130BD01F0004545F0FE4193
:1004500041F470014FF0000030BD7FEA645C1ABFC8
:10046000194610467FEA655C1CBF0B46024650EAFF
:10047000013406BF52EA033591EA030F41F400212B
:1004800030BD00BF90F0000F04BF0021704730B5B1
:100490004FF4806404F132044FF000054FF0000186
:1004A00050E700BF90F0000F04BF0021704730B547
:1004B0004FF4806404F1320410F0004548BF40421C
:1004C0004FF000013EE700BF42004FEAE2014FEA71
:1004D00031014FEA02701FBF12F07F4393F07F4F4C
:1004E00081F06051704792F0000F14BF93F07F4F7E
:1004F000704730B54FF4607401F0004521F00041C1
:1005000020E700BF50EA010208BF704730B54FF046
:1005100000050AE050EA010208BF704730B511F04B
:10052000004502D5404261EB41014FF4806404F183
:1005300032045FEA915C3FF4DCAE4FF003025FEA05
:10054000DC0C18BF03325FEADC0C18BF033202EB8D
:10055000DC02C2F1200300FA03FC20FA02F001FAE7
:1005600003FE40EA0E0021FA02F11444C1E600BF86
:1005700070B54FF0FF0C4CF4E06C1CEA11541DBF39
:100580001CEA135594EA0C0F95EA0C0F00F0DEF804
:100590002C4481EA030621EA4C5123EA4C5350EAE9
:1005A000013518BF52EA033541F4801143F480133A
:1005B00038D0A0FB02CE4FF00005E1FB02E506F0CB
:1005C0000042E0FB03E54FF00006E1FB03569CF020
:1005D000000F18BF4EF0010EA4F1FF04B6F5007F26
:1005E00064F5407404D25FEA4E0E6D4146EB060698
:1005F00042EAC62141EA55514FEAC52040EA5E5021
:100600004FEACE2EB4F1FD0C88BFBCF5E06F1ED8CA
:10061000BEF1004F08BF5FEA500E50F1000041EB01
:10062000045170BD06F0004646EA010140EA0200AE
:1006300081EA0301B4EB5C04C2BFD4EB0C0541EAD0
:10064000045170BD41F480114FF0000E013C00F3E5
:10065000AB8014F1360FDEBF002001F0004170BD09
:10066000C4F10004203C35DA0C341BDC04F1140422
:10067000C4F1200500FA05F320FA04F001FA05F2AE
:1006800040EA020001F0004221F0004110EBD3707B
:1006900021FA04F642EB06015EEA430E08BF20EAA7
:1006A000D37070BDC4F10C04C4F1200500FA04F34A
:1006B00020FA05F001FA04F240EA020001F00041DC
:1006C00010EBD37041F100015EEA430E08BF20EA4F
:1006D000D37070BDC4F1200500FA05F24EEA020E97
:1006E00020FA04F301FA05F243EA020321FA04F0C6
:1006F00001F0004121FA04F220EA020000EBD3707D
:100700005EEA430E08BF20EAD37070BD94F0000F7C
:100710000FD101F00046400041EB010111F4801FB0
:1007200008BF013CF7D041EA060195F0000F18BF61
:10073000704703F00046520043EB030313F4801F9D
:1007400008BF013DF7D043EA0603704794EA0C0F57
:100750000CEA135518BF95EA0C0F0CD050EA41066D
:1007600018BF52EA4306D1D181EA030101F00041EA
:100770004FF0000070BD50EA410606BF1046194612
:1007800052EA430619D094EA0C0F02D150EA01361E
:1007900013D195EA0C0F05D152EA03361CBF10465F
:1007A00019460AD181EA030101F0004141F0FE41FE
:1007B00041F470014FF0000070BD41F0FE4141F482
:1007C000780170BD70B54FF0FF0C4CF4E06C1CEA82
:1007D00011541DBF1CEA135594EA0C0F95EA0C0F37
:1007E00000F0A7F8A4EB050481EA030E52EA0335F2
:1007F0004FEA013100F088804FEA03334FF0805513
:1008000045EA131343EA12634FEA022245EA11153F
:1008100045EA10654FEA00260EF000419D4208BFF0
:10082000964244F1FD0404F5407402D25B084FEA9D
:100830003202B61A65EB03055B084FEA32024FF449
:1008400080104FF4002CB6EB020E75EB030E22BFA6
:10085000B61A754640EA0C005B084FEA3202B6EB66
:10086000020E75EB030E22BFB61A754640EA5C0015
:100870005B084FEA3202B6EB020E75EB030E22BFA5
:10088000B61A754640EA9C005B084FEA3202B6EBA6
:10089000020E75EB030E22BFB61A754640EADC0065
:1008A00055EA060E18D04FEA051545EA16754FEAC7
:1008B00006164FEAC30343EA52734FEAC2025FEAE5
:1008C0001C1CC0D111F4801F0BD141EA00014FF074
:1008D00000004FF0004CB6E711F4801F04BF014345
:1008E0000020B4F1FD0C88BFBCF5E06F3FF6AFAE61
:1008F000B5EB030C04BFB6EB020C5FEA500C50F1F1
:10090000000041EB045170BD0EF0004E4EEA113173
:1009100014EB5C04C2BFD4EB0C0541EA045170BD7A
:1009200041F480114FF0000E013C90E645EA060EBE
:100930008DE60CEA135594EA0C0F08BF95EA0C0FEC
:100940003FF43BAF94EA0C0F0AD150EA01347FF434
:1009500034AF95EA0C0F7FF425AF104619462CE70B
:1009600095EA0C0F06D152EA03353FF4FDAE10466E
:10097000194622E750EA410618BF52EA43067FF4BF
:10098000C5AE50EA41047FF40DAF52EA43057FF44F
:10099000EBAE12E74FF0FF3C06E000BF4FF0010C5A
:1009A00002E000BF4FF0010C4DF804CD4FEA410CBE
:1009B0007FEA6C5C4FEA430C18BF7FEA6C5C1BD08B
:1009C00001B050EA410C0CBF52EA430C91EA030F0C
:1009D00002BF90EA020F0020704710F1000F91EA69
:1009E000030F58BF994208BF90422CBFD8176FEA37
:1009F000E37040F0010070474FEA410C7FEA6C5C05
:100A000002D150EA013C07D14FEA430C7FEA6C5C0B
:100A1000D6D152EA033CD3D05DF8040B704700BF37
:100A20008446104662468C461946634600E000BF85
:100A300001B5FFF7B7FF002848BF10F1000F01BD57
:100A40004DF808EDFFF7F4FF0CBF012000205DF822
:100A500008FB00BF4DF808EDFFF7EAFF34BF0120A7
:100A600000205DF808FB00BF4DF808EDFFF7E0FF40
:100A700094BF012000205DF808FB00BF4DF808ED91
:100A8000FFF7CEFF94BF012000205DF808FB00BFF8
:100A90004DF808EDFFF7C4FF34BF012000205DF8DA
:100AA00008FB00BF4FEA410212F5001215D211D522
:100AB0006FF47873B3EB625212D94FEAC12343F05B
:100AC000004343EA505311F0004F23FA02F018BFDD
:100AD000404270474FF00000704750EA013005D1A6
:100AE00011F0004008BF6FF0004070474FF0000069
:100AF000704700BF4A0011D212F5001211D20DD575
:100B00006FF47873B3EB62520ED44FEAC12343F013
:100B1000004343EA505323FA02F070474FF00000BD
:100B2000704750EA013002D14FF0FF3070474FF06C
:100B3000000070474FEA4102B2F1E04324BFB3F531
:100B4000001CDCF1FE5C0DD901F0004C4FEAC00244
:100B50004CEA5070B2F1004F40EB830008BF20F028
:100B60000100704711F0804F21D113F13872BCBFE2
:100B700001F00040704741F480114FEA5252C2F137
:100B80001802C2F1200C10FA0CF320FA02F018BF80
:100B900040F001004FEAC1234FEAD32303FA0CFCD3
:100BA00040EA0C0023FA02F34FEA4303CCE77FEA62
:100BB000625307D150EA01331EBF4FF0FE4040F4AC
:100BC0004000704701F0004040F0FE4040F400005B
:100BD000704700BFDFF834D0002103E00C4B5B58B6
:100BE000435004310B480C4B42189A42F6D30B4A3F
:100BF00002E0002342F8043B094B9A42F9D302F089
:100C000063FC17F0D7FF01F0A7FA7047000003203C
:100C1000DC33020800000020700B0020700B002065
:100C20001C1D0220FEE7000003681D2B70B5054661
:100C300002D0262B20D0CEE040F62E014068684C32
:100C40000AF08FFA40F62F01A06068680AF089FA6E
:100C50004FF40361E06068680AF083FA40F6290106
:100C6000206168680AF07DFA4FF40461A061686849
:100C70000AF077FAE06170BD80680AF032FA40F657
:100C8000280290420446EB6859D009DC40F626025F
:100C900090426FD035DC40F61B02904217DA70BDEF
:100CA00040F62F02904200F08480B0F5036F09DA1D
:100CB00040F62902904200F0848040F62E029042D5
:100CC00073D070BD79D0B0F5046F7ED070BD012BAC
:100CD00040F08580434E424D3378434955F8230018
:100CE0000A2208F060FE4048FFF782FA052876D80D
:100CF0003E493D4801EB440117F0BFFF33783A49C4
:100D000017E0012B6BD1374E374C3378344D0A2224
:100D100055F82300214608F046FE2046FFF768FA02
:100D2000C0B200285BD02044002300F8013C337897
:100D3000214655F82300BDE8704008F0CBBD012BDB
:100D40004DD1294C264D0023236063602381214629
:100D5000A86808F0BFFD2146E86808F0BBFD214601
:100D6000286908F0B7FD2146A86908F0B3FD2146BF
:100D7000E869E0E7012B32D11A4D2B78062B2ED0F3
:100D8000174C194954F823000A2208F00CFE1648A3
:100D9000FFF72EFA052822D81549134817F06DFFE2
:100DA0002B78114954F82300C5E7012B17D10222F3
:100DB0000EE0012B13D103220AE0012B0FD10422F4
:100DC00006E0012B0BD1062202E0012B07D10722FE
:100DD000044B1A7070BDBDE870400BF0B5BB70BD20
:100DE000A80B0020D00B0020980B00209BAF01081F
:100DF00026D6010810B52DED028B164B84B053F8A2
:100E0000200000240A2201A9F0EE408AB0EE608A98
:100E100001940294ADF80C4008F0C5FD01A817F04C
:100E2000C1FE51EC100BFFF785FE07EE900AF4EEC1
:100E3000E87AF1EE10FA07DBF4EEC87AF1EE10FA78
:100E400094BF0120204600E0204604B0BDEC028B98
:100E500010BD00BFA80B002003681D2B70B5044611
:100E600002D0262B14D098E040F6020140684D4D88
:100E70000AF077F940F61201286060680AF071F90B
:100E800040F61701686060680AF06BF9686170BD30
:100E900080680AF026F9A0F602020646E368152AE1
:100EA0007FD8DFE802F06B0B0B0B0B0B0B0B0B0B64
:100EB0000B1F3D7E7E7E6F7E7E7E5074012B70D137
:100EC000394D384C2B78394954F823000A2208F060
:100ED0006AFD3648FFF78CF9052862D8344901EBE2
:100EE000460143E0012B5CD12F4E304C33782D4D21
:100EF0000A2255F82300214608F055FD2046FFF749
:100F000077F9C0B200284CD02044002300F8013CFF
:100F1000337855F823002146BDE8704008F0DABC6C
:100F2000012B3ED1214C1F4D0023236063602381A0
:100F30002146286808F0CEFC2146686808F0CAFC03
:100F400021466869E8E7012B2BD1174D2B78052B3B
:100F500027D0144C154954F823000A2208F023FD29
:100F60001248FFF745F905281BD812490F4817F01A
:100F700084FE2B780D4954F82300CDE7012B10D1C6
:100F8000002207E0012B0CD1074A137070BD012B22
:100F900007D10522044B1A7070BDBDE870400BF0FC
:100FA000D3BA70BDA80B0020D00B0020980B0020F6
:100FB000E7BF010826D601082DE9F04303681D2B81
:100FC00091B0054603D0262B00F0E18038E240F6D0
:100FD00013014068B14C0AF0C4F840F615012062D4
:100FE00068680AF0BEF84FF4B87160626868AC4C8B
:100FF0000AF0B7F8AB4B40F27111186068680AF05C
:10100000B0F8A94B18600AF02CF94FF4A871686881
:101010000AF0A7F80022A549206006F0CDFA206862
:10102000A349012206F0C8FA02222068A149A24C75
:1010300006F0C2FA40F6110168680AF092F89F497A
:10104000206008F009FD8721206809F083F82068F6
:101050009B4908F06BFD20689A4908F067FD2068FD
:10106000994908F063FD2068984908F05FFD206801
:10107000974908F05BFD2068964908F057FD206805
:10108000954908F053FD2068944908F04FFD206809
:10109000934908F04BFD2068924908F047FD20680D
:1010A000914908F043FD2068904908F03FFD206811
:1010B0008F4908F03BFD20688E4908F037FD206815
:1010C0008D4908F033FD20688C4908F02FFD206819
:1010D0008B4908F02BFD20688A4908F027FD20681D
:1010E000894908F023FD2068884908F01FFD206821
:1010F000012108F0DCFC20681E2108F090FC20682B
:10110000834C092108F0D6FE40F6410168680AF0D8
:1011100028F86A49206008F09FFC8721206809F0C0
:1011200019F87C49206808F001FD7B49206808F027
:10113000FDFC7A49206808F0F9FC7949206808F03C
:10114000F5FC7849206808F0F1FC7749206808F040
:10115000EDFC7649206808F0E9FC7549206808F044
:10116000E5FC7449206808F0E1FC7349206808F048
:10117000DDFC0121206808F09AFC1E21206808F09F
:101180004EFC2068042108F095FE206826E0806867
:1011900009F0A7FFB0F5B87F0146EE6821D040F214
:1011A0007113984200F01681B0F5A87F40F02082BC
:1011B000052E40F01D82686809F0D3FF384B186097
:1011C00006F0CBFB5D4B1870C0B25D4B1B5C032B74
:1011D0004F4B186802D10AF041F809E20AF041F8D1
:1011E00006E2012E40F00482544F2C4C32220021A2
:1011F00003A817F03AFD524B3A7813F80290B9F170
:10120000010F984623D0B9F1020F40F01C81DFEDA9
:10121000520A9FED520A0020FFF7ECFD08B9494938
:10122000BCE0DFED4D0A9FED4D0A3046FFF7E2FDD1
:1012300008B94549B2E0DFED480AB7EE000A0520DB
:10124000FFF7D8FD002840F0FE804049A6E0DFED22
:10125000420A9FED420A0020FFF7CCFD0028DED0B5
:10126000DFED3D0A9FED3D0A4846FFF7C3FD00282C
:10127000DFD0DFED390A9FED390A0220FFF7BAFD12
:1012800008B933498AE0DFED340A9FED340A0320C0
:10129000FFF7B0FD002863D12E497FE0A80B0020A6
:1012A00070180020741800206C180020D4D4010895
:1012B000E4D40108F8D401088018002004F50108DE
:1012C00002D50108FCD4010801D5010806D50108A2
:1012D0000BD5010810D5010815D501081AD501084C
:1012E0001FD5010824D5010829D501082ED50108EC
:1012F00033D5010838D501083DD5010842D501088C
:1013000047D501084CD5010851D5010856D501082B
:101310007C1800205CD501085FD5010862D5010862
:1013200065D5010868D501086BD501086ED501089F
:1013300071D5010874D5010877D50108920B0020FA
:1013400098AF01087BD5010898D50108B5D50108EB
:10135000C5D50108E6D501080000C84217B7D13845
:101360005FED030A1FED030A0420FFF743FD08B9F0
:10137000A14913E0DFEDA10AB7EE000A0620FFF74E
:1013800039FD08B99E4909E0DFED9E0AB7EE000A73
:101390000720FFF72FFD002855D19B4903A817F020
:1013A0007BFC206A994906F030F8606A974906F09C
:1013B0002CF8206AFF2105F0ECFF606AFF2105F0A0
:1013C000E8FF9349206A05F0F7FF03A9606A05F07A
:1013D000F3FF0DE1012E40F00B818E4B8E4D18680E
:1013E00009F03FFF8D4B186809F038FF8C4B8D4991
:1013F000186A05F0E1FF002421462868013407F04F
:1014000075F8032CF8D1884B186809F027FF874B33
:10141000186809F023FF864B864A1B78D35C032BA0
:10142000854B186802D109F019FF01E009F019FF96
:1014300000F07EFB002380F8303000F0E3FCD7E0C2
:101440000BF082F8D4E07149206ADFF8CC9105F006
:10145000DCFF4FF47F41206A05F09BFF7749206A4B
:1014600005F0AAFF6F49606A05F0A6FF6B4B18688C
:1014700009F0F7FE674B186809F0F0FE00263146C8
:10148000D9F80000013607F00EF8032EF7D1664BAD
:10149000186809F0E6FE654B186809F0E2FE664B35
:1014A000186809F0DEFE00F043FB002306460A221E
:1014B0006349206800930193ADF8083008F073FA8F
:1014C0005F4817F06FFB51EC100BFFF733FB0A225C
:1014D0005B493060606808F066FA594817F062FBB3
:1014E00051EC100BFFF726FB0A225549706060692A
:1014F00008F059FA524817F055FB51EC100BFFF762
:1015000019FB0A224E49F060A06808F04CFA4C48DA
:1015100017F048FB51EC100BFFF70CFB0A2248496F
:101520003061E06808F03FFA454817F03BFB51ECAA
:10153000100BFFF7FFFA0A2241497061206908F099
:1015400032FA3F4817F02EFB51EC100BFFF7F2FA7E
:101550000A223B49B061A06908F025FA384817F023
:1015600021FB51EC100BFFF7E5FA0A223449F06138
:10157000E06908F018FA324817F014FB51EC100B30
:10158000FFF7D8FA40F611017062686809F0E9FDCA
:10159000044608F0B8FC0A236A460146204608F0D3
:1015A000F6FD684617F001FB40F64101708568685A
:1015B00009F0D7FD044608F0A6FC0A2301466A4656
:1015C000204608F0E4FD684617F0ECFA51EC100BE9
:1015D000FFF7B0FA9FED0B7A3B7806EE900AC6EE65
:1015E000877A18F8033086F83030C6ED0B7A24E796
:1015F00011B0BDE8F08300BF07D6010800803B456D
:1016000028D601080000C8423BD6010878FF01082F
:101610007CD901086C18002078180020741800206C
:10162000A80B0020FDDA01087018002080180020A7
:10163000920B002098AF01087C1800204FD60108BB
:10164000980B002030B585B040F24513002402937A
:101650004FF482730222019321466FF00903009434
:10166000374807F08CF92146054607F034F9214642
:10167000284607F0DEF8284609F08EFD02238DE8A3
:101680000900EB224FF49B73039402940621072078
:1016900006F0A6FC2B4D2C49286006F04AFF019469
:1016A00000944FF0FF33294A29480E2108F0A0FD8D
:1016B000284B294A18600146286806F06FFE0194FD
:1016C00000944FF0FF33254A2548142108F090FD7F
:1016D000244B254A18600146286806F05FFE0194F5
:1016E00000944FF0FF33214A2148182108F080FD73
:1016F000204B214A18600146286806F04FFE2868F2
:101700001E4D214606F07CFC28681D4908F0E2F8D1
:1017100068681C4908F0DEF8A8681B4908F0DAF888
:10172000E8681A4908F0D6F82869194908F0D2F88B
:10173000E869184908F0CEF8204605B030BD00BF72
:1017400054D601087818002004F50108B90F0008E4
:10175000F4D70108641800205CD60108590E00086F
:10176000A4D201088418002067D60108290C0008BB
:1017700004D001086818002072D60108A80B0020C8
:1017800081D6010885D6010883D6010887D60108CD
:101790008BD6010892D6010830B587B000F0C8F9A1
:1017A00090F83030224D234C1BB900222A60238050
:1017B00006E000F0F1F985ED000A00F009FA20805A
:1017C00095ED000A1C481D4D00F08AFE1C48228839
:1017D0001C4901F021F8286809F0C0FB98B128687D
:1017E000194D09F0D9FC40F61A01286009F0B9FC3E
:1017F000114905F0E1FD40F64501286809F0B1FC0A
:101800000F4905F0D9FD0C4A104901A801F004F870
:1018100001A90F4800F0F3FF22880E4901A800F04B
:10182000FBFF01A90A4800F0EAFF07B030BD00BF86
:101830008C0B0020900B0020D10B0020641800209E
:10184000A20B002095D60108940B002098D6010821
:101850009DD60108A0D601082DE9F04399B00024D7
:10186000894D01F06BFE01F0B9FC4FF4A071F0203E
:1018700001F0A8FD05942B6B43F480232B632B6BA5
:1018800003F480230593059B06942B6B43F480534C
:101890002B632B6B03F480530693069B03942B6CF2
:1018A00043F080532B642B6C03F080530393039B12
:1018B000764B04941A6842F440421A601B6803F4A1
:1018C00040430493049B4FF4800313930823149321
:1018D0004FF4A87301274FF0020815930CA80723B3
:1018E0004FF4805917930F260C970D97CDF8488029
:1018F000CDF8588003F0B6FA4FF4A053052107A89D
:101900000A930796CDF820800994CDF82C9003F027
:101910004FFC042002F0E4F8224631464FF0FF303D
:1019200002F088F801942B6B594E3B432B632B6BD1
:101930003B400193019B02942B6B43F040032B63CC
:101940002B6B03F040032246029330464FF4C04114
:10195000029B02F0F3FB0CA94FF4C04330460C93FA
:101960000D970E940F9402F0FDFA00F0C7FB494B5F
:10197000494A4A4E1A600CA8494B0C9303F061FE89
:10198000484AB4604FF48033304686E80C00376133
:10199000B7613462F462F460C6F81C803763776123
:1019A00001F002FE0B230CA930460C930D970E9705
:1019B00001F094FF0D230CA930460C93CDF8348030
:1019C00001F08CFF00942B6B43F480032B632B6B93
:1019D000354D03F480032246009305213820009BF7
:1019E00002F028F8382002F059F83049AC6042F291
:1019F000CF0385E80A00284644F61F63EB602C619C
:101A000004F072FA0CA92846CDF8309004F0A7F83B
:101A1000284604F083FA07A928460794089404F09E
:101A200085FB234942F20F736020224681E80900BA
:101A300028468C600C6104F0BDFA284600F09EFC3C
:101A40001C4D1D4BAC60532685E848002846632397
:101A5000EB602C6104F048FA0CA92846CDF83090D0
:101A600004F07DF807A928460794089404F05EFB6B
:101A7000224604211E2001F0DDFF1E2002F00EF898
:101A800019B0BDE8F08300BF00380240007000408C
:101A900000180240641A002081200008001900206C
:101AA0000008065000200140C4180020000C00402F
:101AB00048190020881800200008004071EE611AC3
:101AC000194B21EE800AD3ED007AC0EE200A70EEA9
:101AD000A70AF7EE007AF4EEE70AF1EE10FA02DD5B
:101AE000C3ED007A0AE0BFEE007AF4EEC70AF1EE29
:101AF00010FA48BFF0EE470AC3ED000AD3ED001A12
:101B000030EE210AB4EEE70AF1EE10FA09DCB5EE88
:101B1000400ADFED067AF1EE10FA48BFB0EE670A30
:101B20007047B7EE000A7047F01300200000000075
:101B300000487047000000200B490C4AB1F9003002
:101B400010680B4A42F8230001331AB2094B1340C4
:101B5000002BBFBF03F1FF336FEAC3536FEAD353C8
:101B600001330B80704700BFEC130020D80B00201E
:101B7000EC0B0020FF01008002220249024801F024
:101B8000BDBD00BFD80B002000190020014801F0A6
:101B900035BE00BF0019002000220B48134650F844
:101BA00022100132B2F5007F0B44F8D15A0A47F2F5
:101BB000305353431B0B00EE103ADFED047AB8EEBE
:101BC000C00A80EE270A7047EC0B002000007A4420
:101BD000034B58684FF4AF635843C0F30F3070475E
:101BE000D80B00200000000070B50268544B9A42E8
:101BF0002DED048B40F09B80524A92F83030012B3F
:101C0000144619D0022B40F092804F4B9FED4F7A33
:101C1000196892ED031AD2ED010A92ED000A47F21B
:101C200030534B431B0B07EE903AF8EEE77AC7EEC2
:101C3000871AC2ED081A72E0FFF7CAFF07EE900A92
:101C4000B8EE679AD2ED077A92ED047A92ED056AC2
:101C50003F4D404ED5ED008AD2ED066A108537EE35
:101C6000C99AD2ED099A27EE098A27EE267AC8EE9C
:101C7000067A77EEA88AD6ED007AC5ED008A79EE6D
:101C8000677A67EE877A17EE900AFEF71DFC2AA3A3
:101C9000D3E90023FEF796FDFEF74CFFF3EE0E7A34
:101CA000F4EEE78AF1EE10FA07EE100A86ED009ADC
:101CB00006DCFBEE0E7AF4EEE78AF1EE10FA01D5BF
:101CC000C5ED007A95ED001A38EE018A38EE071A54
:101CD000F4EEC19AF1EE10FA09D4B5EE401ADFED38
:101CE0001E7AF1EE10FA48BFB0EE671A01E0B0EECE
:101CF000691A154B9FED157A1A68D4ED010A94ED17
:101D0000000A84ED031A47F2305353431B0B07EECE
:101D1000903AF8EEE77AC7EE871AC4ED081AFFF793
:101D2000CDFEBDEC048BBDE8704000F057BABDECB1
:101D3000048B70BDAFF300802D431CEBE2361A3FDD
:101D40000008004000000020D80B002000007A446A
:101D5000E40B0020E80B002000000000014803F025
:101D6000E8BE00BF8818002008B50B4800F047FD0A
:101D700000224FF48041094802F0E0F900F04EFAE9
:101D8000FFF704FFFFF7EAFF054A00231360054A47
:101D90001360054A136008BD92D90108001802407B
:101DA000F0130020E40B0020E80B0020014803F0B2
:101DB000B5BE00BF8818002010B50F480F4C00F0CA
:101DC0001EFD01224FF480410D4802F0B7F9608DED
:101DD00000F0F4F994ED0B0A00F000FAFFF7CCFEE6
:101DE00000F00EFA94F83030032B03D0BDE8104019
:101DF000FFF7DCBF10BD00BF9FD901080000002025
:101E000000180240014B01221A707047E00B0020BD
:101E1000524B1A7813B5002A00F09E80504C0022D5
:101E20001A7094F83030032B00F29680DFE803F04C
:101E3000022B0475A36B8BE04A4800F0E0FC4A4893
:101E400000F0DDFCD4ED037A4848FCEEE77ACDEDF6
:101E5000017ABDF8041000F0D2FC94ED000A00F005
:101E600057FB0146424800F0CAFC94ED010A00F01D
:101E70004FFB01463F4800F0C2FC3F48618D00F037
:101E8000BEFC3E4861E0374800F0B9FC364800F03F
:101E9000B6FCD4ED077A3A48FCEEE77ACDED017A4C
:101EA000BDF8041000F0ABFC94ED000A00F030FB2C
:101EB0000146344800F0A3FC94ED010A00F028FB31
:101EC0000146314800F09BFC94ED040A00F020FB31
:101ED00001462E4800F093FC94ED050A00F018FB33
:101EE00001462B4800F08BFC94ED060A00F010FB35
:101EF0000146284800F083FC618D1F4800F07FFCFC
:101F0000D4ED097A2448FCEEE77ACDED017ABDF8EC
:101F1000041000F074FC214817E0124800F06FFC38
:101F2000114800F06CFC618D134800F068FCD4EDA2
:101F30000B7A9FED1B7A1B4867EE877AFCEEE77AF7
:101F400017EE901A00F05BFC174800F058FC636B2A
:101F500002B0BDE81040184702B010BDE00B0020F1
:101F600000000020B0D90108D9D90108E9D9010839
:101F7000FCD9010804DA01080CDA01082CDA01089E
:101F80003FDA01085CDA01086ADA010878DA010848
:101F90008ADA01089CDA0108AEDA0108C8DA010819
:101FA0000000C842DDDA0108FEDA010808B50420A5
:101FB00008F072FD0EF06CF90EF030F9BDE8084043
:101FC000FFF740BB10B586B001A801F01DFABDF8BF
:101FD00004308DF81430204BBDF8062058881C883A
:101FE00092B29042BDF80620BDF808108CBF801A4E
:101FF000101A9A8889B28A42BDF808108CBF521A0A
:102000008A1ABDF8041089B28C4280B292B203D110
:10201000032801D8032A1BD9BDF804201A80BDF873
:1020200006200D4992B24AB1BDF8082092B22AB1F9
:10203000BDF806204A80BDF808208A8000228DF86D
:10204000152003A85A889B88039204930DF0C0FBC7
:102050000DF06AFE06B010BDF413002010B5054C5B
:10206000FF220021204616F000FE002384F8FF30F6
:1020700010BD00BF3C000020004870473C0000201D
:1020800007B502A9012201F8010D064804F0CCF9B8
:10209000054B01221A701A78002AFCD103B05DF8B2
:1020A00004FB00BF241A0020FD1300200268094B26
:1020B0009A4210B50DD1084C08480122214604F07F
:1020C000D2F9074B93F8FF20511C83F8FF102178B9
:1020D000995410BD00100140FC130020241A002068
:1020E0003C0000200268034B9A4202BF024B0022D0
:1020F0001A70704700100140FD13002038B50F4AD8
:102100000F4C00254FF4E13384E82C0020460C23CB
:102110006361E5602561A561E56104F057F92A4630
:102120000221252001F086FC252001F0B7FC204685
:1021300001220449BDE8384004F095B9001001407F
:10214000241A0020FC1300204FF40051014801F034
:10215000F9BF00BF0018024080B5FFF77DFB144CAB
:10216000144FFFF723FF2546FFF752FE01F008FA50
:10217000DFF84080104E3860002323702B78032B4B
:10218000F2D84FF00C0909FB03F3F018D8F800203F
:102190008168521A41688A4206D3F35898472378D7
:1021A0003A6809FB03639A602B7801332B70E5E7EB
:1021B000041400200014002040010020054B53228D
:1021C0005A6054225043044AB2FBF0F0D8601846DB
:1021D00003F08ABEC418002000BD0105064BD3EDF4
:1021E000037A064BF8EE677A27EE800ABCEEC00A47
:1021F00083ED0D0A704700BFC4180020000C00409A
:1022000010B5054C204603F065FC20460021BDE8D2
:10221000104003F03FBF00BFC418002010B5054CAC
:10222000204603F064FC20460021BDE8104003F086
:102230004BBF00BFC418002008B5032001F0E8FB25
:1022400000220F214FF0FF30BDE8084001F0F2BB43
:102250007FB50268104B9A421AD1002300930F4BAE
:102260000F485A6C42F010025A645B6C03F0100382
:102270000093009B4FF4C063019302230293012358
:1022800003930323049301A90723059301F06AFE36
:1022900007B05DF804FB00BF0010014000380240A9
:1022A0000000024070B502681B4B9A4286B0064699
:1022B00030D1002503F58C3300955A6C1748184C23
:1022C00042F480725A645B6C039503F4807300934C
:1022D000009B0A23019301A90323029301F042FE0C
:1022E000104BA56084E828004FF4806323614FF40D
:1022F000805363614FF48043A3614FF48073E361C3
:1023000020464FF44033E5602362656201F010FC23
:10231000B463A66306B070BD00200140000802400F
:1023200064190020106402400368114A934282B08D
:102330000CD1002300930F4B1A6C42F008021A6470
:102340001B6C03F008030093009B0EE00A4A9342C3
:102350000BD100230193074B1A6C42F004021A645C
:102360001B6C03F004030193019B02B0704700BF94
:10237000000C004000380240000800407FB50268B1
:10238000084B9A420BD1012301930022022301A999
:102390000548029303920493059301F0E3FD07B00F
:1023A0005DF804FB000C00400000024008B501F09D
:1023B000DFF8BDE8084001F0A0BB0000014801F0D3
:1023C000E7BC00BFC4190020014804F0ADB800BF4D
:1023D000241A0020014802F08FBB00BFC01A02205F
:1023E000014803F07ABC00BF88180020014801F0C2
:1023F000CFBC00BF6419002070B506460D46FFF73C
:1024000097FB04460A2E63D8DFE806F0060F182172
:102410002A33393E47515A00284616F0C3FB51EC87
:10242000100BFEF787FB206070BD284616F0BAFB44
:1024300051EC100BFEF77EFB606070BD284616F075
:10244000B1FB51EC100BFEF775FB206170BD284607
:1024500016F0A8FB51EC100BFEF76CFB606170BD31
:10246000284616F09FFB51EC100BFEF763FBA061B2
:1024700070BD284616F099FB84F8300070BD2846E0
:1024800016F093FB608570BD284616F08BFB51EC6F
:10249000100BFEF74FFBE06070BD284616F085FB81
:1024A00007EE900AF8EEE77AC4ED077A70BD284689
:1024B00016F078FB51EC100BFEF73CFB606270BD30
:1024C000284616F06FFB51EC100BFEF733FBE06271
:1024D00070BD0000014800F092B900BF28DB010880
:1024E000FDEEC07A0849B8EEE77A17EE902A30EE92
:1024F000470A9FED067A20EE070ABDEEC07A17EE76
:10250000103A00F089B900BF2ADB01080000C84278
:10251000FDEEC07A10B5B8EEE77A094C094930EE05
:10252000470A9FED097A20EE070A2046BDEEC07AE1
:1025300017EE902A17EE103A00F06EF9204610BD03
:102540000514002032DB010800401C462DE9F04351
:1025500085B0FFF791FD013810F8013F002B50D0F6
:10256000652BF9D1FFF788FD0024019402940394B0
:102570000378732B064603D0632B0CBF012402247F
:10258000214A0C2303FB042306F101085F680020A5
:102590001E4991F800E000230EEB0302D2B218F8B6
:1025A00002506E2D0ED0652D03F1010202D10025DF
:1025B0000D700AE00DF1100C5CFA83F303F80C5C6B
:1025C0001346E9E701320A70012547B1022C06D013
:1025D00000F101095FFA89F901A9B84748460023CB
:1025E000019302930393002DD2D1D6F8003198477E
:1025F000054A0C2303FB04239B6813B1022C00D073
:10260000984705B0BDE8F08310DB01080F140020E7
:102610000A2810B5044602D10D20FFF7F9FF074A3A
:1026200013681BB1591C1C70116010BD044B1B6852
:102630001BB12046BDE81040184710BD1014002003
:10264000641A002010B5441E14F8010F10B1FFF7F2
:10265000DFFFF9E710BD2DE9FF4702460D46107870
:10266000002800F0C980252801D0571C6BE0537862
:10267000302B03D1D71C9378012607E02D2B0DBFFB
:102680009378971C0026D71C08BF02264FF000083D
:102690000A21A3F13002092A06D801FB0838A8F163
:1026A000300817F8013BF4E703F0DF024C2A02BFC1
:1026B0003B7846F004060137002B00F09D80602B2C
:1026C00086BFA3F12002D2B21A464F2A12D006D8F2
:1026D000432A30D0442A3CD0422A38D032E0552A0E
:1026E00037D0582A2CD0532A2CD1D5F800902C1D45
:1026F0004B4601E008202DE0C9EB030513F8012B40
:10270000002AF9D1B00709D4454505F1010604D2E4
:102710002020FFF77DFF3546F6E735464846FFF7B0
:1027200091FFA84502D825463A4698E72020FFF7B2
:102730006FFF0135F5E728782C1DFFF769FFF2E7F9
:10274000102007E01846FFF763FF2C46EBE7022056
:1027500000E00A20442A296805F1040404D1002974
:10276000BCBF494246F00806782B14BF4FF0070C57
:102770004FF0270C0022B1FBF0FE00FB1E15EBB260
:10278000092D84BF6344DBB230337146551C0DF80C
:102790000230BEF1000F04D0102D01D02A46EAE726
:1027A0000F22310705D504AB1D442D2305F8103C3D
:1027B000951C16F0010F14BF4FF0300A4FF0200A9D
:1027C000B307A94609D4C14509F1010604D2504610
:1027D000FFF71EFFB146F6E7B146013D1DF80500C3
:1027E000FFF716FF002DF8D1C8459CD92020FFF730
:1027F0000FFF09F10109F7E704B0BDE8F0870FB456
:1028000007B504A951F8040B0191FFF724FF03B0A9
:102810005DF804EB04B070470EB417B505A9084C79
:1028200051F8043B206018460191FFF714FF22681D
:1028300000231370236003B0BDE8104003B070475D
:102840001014002008B500F06BFBCA2000F0E0FB7C
:10285000C32000F0C1FB082000F0BEFB502000F0B8
:10286000BBFBCF2000F0D4FB002000F0B5FBC12063
:1028700000F0B2FB302000F0AFFBED2000F0C8FB11
:10288000642000F0A9FB032000F0A6FB122000F05A
:10289000A3FB812000F0A0FBE82000F0B9FB85201D
:1028A00000F09AFB002000F097FB782000F094FBEA
:1028B000CB2000F0ADFB392000F08EFB2C2000F087
:1028C0008BFB002000F088FB342000F085FB022009
:1028D00000F082FBF72000F09BFB202000F07CFB47
:1028E000EA2000F095FB002000F076FB002000F0CD
:1028F00073FBB12000F08CFB002000F06DFB1B206F
:1029000000F06AFBB62000F083FB0A2000F064FBB5
:10291000A22000F061FBC02000F07AFB102000F044
:102920005BFBC12000F074FB102000F055FBC520BC
:1029300000F06EFB452000F04FFB152000F04CFB33
:10294000C72000F065FB902000F046FB362000F029
:102950005FFBC82000F040FBF22000F059FB002094
:1029600000F03AFBB02000F053FBC22000F034FB33
:10297000B62000F04DFB0A2000F02EFBA72000F04F
:102980002BFB272000F028FB042000F025FB2A2049
:1029900000F03EFB002000F01FFB002000F01CFBBD
:1029A000002000F019FBEF2000F016FB2B2000F0B8
:1029B0002FFB002000F010FB002000F00DFB012099
:1029C00000F00AFB3F2000F007FBF62000F020FBA0
:1029D000012000F001FB002000F0FEFA062000F0CC
:1029E000FBFA2C2000F014FBC82000F02DFB262061
:1029F00000F00EFB012000F0EFFAE02000F008FBF1
:102A00000F2000F0E9FA292000F0E6FA242000F077
:102A1000E3FA0C2000F0E0FA0E2000F0DDFA0920C5
:102A200000F0DAFA4E2000F0D7FA782000F0D4FA5D
:102A30003C2000F0D1FA092000F0CEFA132000F07B
:102A4000CBFA052000F0C8FA172000F0C5FA1120D3
:102A500000F0C2FA002000F0BFFAE12000F0D8FA3E
:102A6000002000F0B9FA162000F0B6FA1B2000F0A2
:102A7000B3FA042000F0B0FA112000F0ADFA0720FC
:102A800000F0AAFA312000F0A7FA332000F0A4FAEF
:102A9000422000F0A1FA052000F09EFA0C2000F080
:102AA0009BFA0A2000F098FA282000F095FA2F20CF
:102AB00000F092FA0F2000F08FFA112000F0A8FA2F
:102AC000C82000F0C1FA292000F0A2FA2C20BDE8AD
:102AD000084000F09DBA10B5C4B20222032120467E
:102AE00000F0E0FA0A2000F029FB20460022032132
:102AF00000F0D8FA0220BDE8104000F01FBB38B546
:102B00000446E4B200F0A2FA0021204600F0E4FA04
:102B100001210546204600F0DFFA40EA052080B298
:102B200038BD10B5C4B24021204600F0D5FA0306E6
:102B300007D54C21204600F0CFFA003018BF012005
:102B400010BD204601224B2100F0ACFA20460022A5
:102B50004B2100F0A7FA002010BD73B50423C4B2C6
:102B60000E461546D7210DEB0302204600F0D0FAA1
:102B7000019B1BBA1A0DC3F30B23328020462B8016
:102B800001224B2100F08EFA00224B21204600F05A
:102B900089FA02B070BD000010B50A4B1A78904255
:102BA00004460ED05978884200D110BD0AB141B90F
:102BB00001229C5400F04AFA2046BDE81040FFF77D
:102BC0008ABF10BD1414002010B5C4B209212046DC
:102BD00000F082FA40F00102D2B220460921BDE89D
:102BE000104000F05FBA10B5C4B20921204600F0D1
:102BF00073FA092100F0FE022046BDE8104000F003
:102C000051BA38B5C5B20C4628460A2100F064FA1C
:102C100040EA0402D2B228460A21BDE8384000F05A
:102C200041BA10B5044600F013FA20461F21FFF701
:102C3000E8FF2046BDE81040FFF7C6BF38B5C5B273
:102C40000C4628460A2100F047FA20EA0402D2B2D4
:102C500028460A21BDE8384000F024BA10B50446E1
:102C6000FFF7C1FF20461F21BDE81040FFF7E6BF78
:102C700010B5C0B20C460B2100F02EFA204010BD5A
:102C80001F21FFF7F5BF0A46C0B20B2100F00ABAB8
:102C90001F21FFF7F8BF38B5C5B20C4628461721EB
:102CA00000F01AFA20EA0402D2B228461721BDE841
:102CB000384000F0F7B970B5C4B20646042120468A
:102CC00000F00AFA042100F0FB020546204600F05D
:102CD000E9F93046F021FFF7DEFF05F0F802204663
:102CE000042100F0DFF949222021204600F0DAF922
:102CF000022000F023FA20460122212100F0D2F91F
:102D000020469A22412100F0CDF9204601224A2195
:102D100000F0C8F9204601224B2100F0C3F92046FB
:102D200000224B2100F0BEF920460122562100F07E
:102D3000B9F920460122582100F0B4F920460122B9
:102D4000402100F0AFF92046FF220B2100F0AAF944
:102D50000220BDE8704000F0F1B9000010B5214C30
:102D600088B0204602F02FFE002838D11E4B236089
:102D70001823E3610723E3624FF40073A3614FF468
:102D800082736360194B0190A06060612061A06252
:102D9000E060206260625A6C42F480125A645A6C9D
:102DA00002F480120192019A02901A6B104842F0CC
:102DB00020021A631B6B03F020030293029B4FF463
:102DC000607303930223049305930123069303A9DD
:102DD0000523079301F0C6F8204602F0F3FC08B083
:102DE00010BD00BF18140020005001400038024000
:102DF0000014024070B5334E88B0304601F06EFDCD
:102E0000044600285BD1304A304B314D009086E8B3
:102E10000C004FF48043B060F0607061B061F0610D
:102E2000306233612B6B43F004032B632B6B03F095
:102E300004030093009B01902B6B43F001032B6371
:102E40002B6B059003F001030193019B21484FF484
:102E500080730393122304930223069303A904238C
:102E6000079301F07FF84FF4007303A91A48039306
:102E700001F078F802942B6C43F400032B642B6C64
:102E800003F400030293029B2B6A43F400032B62BA
:102E90002B6A23F400032B6222462146482000F0CF
:102EA000C9FD482000F0FAFD22462146492000F0E5
:102EB000C1FD492000F0F2FD304601F00DFB08B0E5
:102EC00070BD00BF681A0020005C0040A0860100B1
:102ED00000380240000002400008024008B50348E4
:102EE00001F069FBBDE80840FFF784BF681A0020C5
:102EF00007B5094B02A91B6821F8020D01220748FA
:102F000002F0B4FC20B1054802F09AFCFFF726FF5E
:102F100003B05DF804FB00BF9801002018140020E6
:102F2000F0B5294B1D7889B0002D4AD1274C00956A
:102F300001261E70236B264843F008032363236B8E
:102F4000049603F0080300930227009B05954FF4B5
:102F5000005303A90393069701F004F80195236B2E
:102F60001B4843F008032363236B049603F0080314
:102F70000193019B05954FF4805303A90393069792
:102F800000F0F0FF0295236B124843F00403236323
:102F9000236B049603F004030424029303A9029B09
:102FA00003940595069700F0DDFF2A46214609485F
:102FB00001F0C4F832462146064801F0BFF8FFF799
:102FC000CDFE09B0F0BD00BF7014002000380240F3
:102FD000000C02400008024038B50B4C05460122A7
:102FE0004FF40051094801F0A9F8002204212046BD
:102FF00001F0A4F82846FFF77BFF204601220421B8
:10300000BDE8384001F09AB800080240000C0240C8
:1030100038B50B4C054600224FF40051094801F029
:103020008DF800220421204601F088F82846FFF799
:103030005FFF204601220421BDE8384001F07EB840
:1030400000080240000C024000F0A0BAFFF7D2BE18
:1030500010B586B00024104B00941A6B0F4842F054
:1030600001021A631B6B049403F001030093009B9D
:103070004FF4004301930123039301A9084B0293EA
:1030800000F070FF22462146282000F0D3FC2820C3
:1030900000F004FD06B010BD003802400000024000
:1030A0000000211010B586B006AC094B04F8012DC4
:1030B0001B68029301230A460193014600940548C8
:1030C00001F092FA08B1FFF709FF06B010BD00BF8A
:1030D0009C010020681A00207FB506AA002302F890
:1030E000013D094B1B68029301238DE80C000A4641
:1030F0000146064801F0FCFA08B1FFF7EFFE9DF823
:10310000170007B05DF804FB9C010020681A00203E
:103110001FB5084C24688DE81C000A4601230146AF
:10312000054801F0E5FA10B1FFF7D8FE012004B020
:1031300010BD00BF9C010020681A002000F026BAD4
:103140002DE9F347234C244D01264FF000080827B2
:10315000214682464FF6FF722846CDF8048084E867
:10316000C000A660C4F80C8002F0ABFA304600F054
:103170000DFA022321464FF6FF72284684E88800A4
:103180004FF00409A660C4F80C8002F09AFA0323F9
:1031900021464FF6FF72284684E88800C4F808905C
:1031A000C4F80C8002F08DFA4FF40C730193019B6C
:1031B000E3604FF6FF7221462846C4F8009067602E
:1031C000A66002F07EFA5146284602F091FA02B05B
:1031D000BDE8F08774140020001500202DE9F041AF
:1031E0006C4E6D4F6D4B33600423BB60F360102356
:1031F0003361402373614FF4C073B3614FF40063D4
:103200008EB033624FF4005300240222B3624FF0B9
:103210000108634B3A6007213A617A61BA6101940F
:103220007960F960C6F80480B460F4617462996BE7
:103230005C4841EA08019963996B01EA0801019130
:1032400001990294196B41F480011963196B01F41F
:103250008001029102990394196B11431963196B50
:103260001140039103990494196B41F0040119630F
:10327000196B01F00401049104990594196B41F054
:1032800008011963196B01F008010591059906946D
:10329000196B41F010011963196B01F010010691CF
:1032A00006990794196B41F020011963196B01F01D
:1032B0002001079107990894196B41F040011963A7
:1032C0001B6B0A9203F0400308930EAD089B0C920F
:1032D0000C230D93602345F8143D29460B9400F010
:1032E00041FE29463048CDF8248000F03BFE4CF2E8
:1032F000037329462D48099300F034FE4FF683737B
:1033000029462B48099300F02DFE4FF63F0329462E
:103310002848099300F026FE294648F23313264D2B
:103320002648099300F01EFE8023AB604FF4007323
:10333000EB604FF480632B614FF480536B614FF46B
:103340008043AB614FF400332B620323AB6228460A
:103350001B4B2B606C60EC616C62EC622C63356320
:10336000AE6300F05BFC284600F0E2FB22462146FB
:10337000382000F05FFB382000F090FB39463046E3
:1033800002F07FF940F26A50FFF7DAFE0EB0BDE8B6
:10339000F08100BF0015002084140020400100A02F
:1033A000003802400004024000080240000C0240C5
:1033B0000010024000140240A01400200018024037
:1033C0001064024038B50C4B0C4C18800C4B82201A
:1033D00019806368984740F6110398420AD1094D55
:1033E00023682C60822098472B688220DB689847EE
:1033F000002038BD012038BD40150020700100209C
:10340000421500203815002073B52A4D2B6804465C
:103410001B698220984780B22080002848D02B6802
:103420000DF106025B6901A982209847BDF80630BC
:10343000A3F5B4739BB20B22B3FBF2F333B11E4A74
:103440001288934284BF02F1FF339BB2BDF804207F
:1034500040F6B8318A4295BFC2F57162C2F56D621D
:103460000E320832ADF80420BDF804000F22B0FB84
:10347000F2F030B1114A1288904284BF02F1FF305D
:1034800080B20F4E0F4D326890428CBF821A121AD2
:1034900091B22A6893428CBF9A1AD21A92B20A4405
:1034A000052AC4BF30602B60336863802B68A3801B
:1034B00002B070BD381500204215002040150020D4
:1034C0003C150020341500200F49D1F8883043F412
:1034D0007003C1F888300D4B1A68002042F00102D9
:1034E0001A6098601A6822F0847222F480321A609E
:1034F000074A5A601A6822F480221A60D8604FF096
:1035000000638B60704700BF00ED00E000380240B0
:103510001030002410B5084B044618684FF47A7335
:10352000B0FBF3F000F0C6FA002221464FF0FF3066
:1035300000F080FA002010BDA001002008B50B4B60
:103540001A6842F400721A601A6842F480621A60C3
:103550001A6842F480721A60032000F059FA0020C1
:10356000FFF7D8FFFEF768FE002008BD003C0240D0
:10357000024A136801331360704700BFBC1A002071
:10358000014B1868704700BFBC1A002013B50190AA
:10359000FFF7F6FF0446FFF7F3FF019B001B98427D
:1035A000F9D302B010BD000010B50446002800F0A9
:1035B0009E80036C23B9436480F83C30FEF772FEB2
:1035C000236CDB0600F18E80236C23F4885323F0F8
:1035D000020343F002032364464B5A6822F440324C
:1035E0005A60596862680A435A60236821695A68B8
:1035F000A06A22F480725A605A6842EA01225A6034
:103600005A6822F040725A605968A2680A435A60A8
:103610009A6822F400629A609968E2680A439A60A4
:10362000354A90420ED0996821F0706199609A688D
:1036300002439A609A6822F040529A609968E26A5E
:103640000A4306E09A6822F070629A609A6822F053
:1036500040529A609A68A16922F002029A609A68C0
:1036600042EA41029A60226A9AB15A6842F40062C0
:103670005A605A6822F460425A604FF4604292FAEB
:10368000A2F2B2FA82F1626A5868013A8A400243B1
:1036900002E05A6822F400625A60DA6A22F4700288
:1036A000DA62E269D96A013A41EA0252DA629A6858
:1036B000216B22F400729A609A6842EA41229A6071
:1036C0009A68616922F480629A609A68002042EAEE
:1036D00081229A606064236C23F0030343F00103AA
:1036E000236400E00120002384F83C3010BD012059
:1036F00010BD00BF002301400100000F37B5134685
:103700000022019290F83C20012A044664D005680A
:10371000012280F83C20AA68D20703D5AA68D00706
:1037200013D44EE0AA6842F00102AA602C4A106845
:103730002C4AB0FBF2F000EB40000190019A002A05
:10374000ECD0019A013A0192F8E7206C20F4E06095
:1037500020F0010040F4807020646A68520541BF87
:10376000206C20F4405040F480502064226CA06B08
:1037700012F480521CBF626C22F0060262640022C6
:1037800084F83C20184AC263184A0264184AC2648A
:103790006FF022022A606A6842F080626A60AA685A
:1037A00042F48072AA600A4605F14C0100F05BFA0F
:1037B000104B5B6813F01F0F236804D00E4A93422E
:1037C00001D0002009E0986810F04050F9D19A68C3
:1037D00042F080429A6000E0022003B030BD00BF9A
:1037E000A001002040420F0057380008B9380008F7
:1037F000C5380008002301400020014090F83C300B
:10380000012B10B5044624D0012380F83C30036816
:103810009A6822F001029A609A68D20714D49A68D2
:10382000806B22F480729A6000F05DFA226853681F
:1038300023F080635360236C23F4885323F0010347
:1038400043F00103236400E00020002384F83C30AF
:1038500010BD022010BD836B1A6C12F0500F10B512
:1038600024D11A6C42F400721A641A68916811F03B
:10387000405F17D19969A9B9D16A11F4700F02D0CC
:10388000916849050ED4516821F0200151601A6CED
:1038900022F480721A641A6CD2045EBF1A6C42F071
:1038A00001021A641846FEF747F910BD9B6BBDE88C
:1038B0001040DB6C1847704708B5806BFFF7FBFFC3
:1038C00008BD7047806B08B540230364436C43F028
:1038D00004034364FFF7F5FF08BD0000F7B50023BC
:1038E000019390F83C30012B69D00D6804688F6813
:1038F0000123092D80F83C30AEB210D906EB460208
:10390000D4F80CE0A2F11E0307229A402EEA02022C
:10391000E260E26807FA03F31343E3600EE0226912
:1039200005EB45034FF0070E0EFA03FE22EA0E02E6
:103930002261226907FA03F3134323614B68062BC4
:103940004FEA83020DD81344676B591F1F238B4026
:1039500027EA03036363626B06FA01F111436163B3
:103960001DE00C2B0ED81344216BA3F123021F235F
:10397000934021EA03032363236B06FA02F21A43FE
:1039800022630CE01344E76A413B1F229A4027EA76
:103990000202E262E16A06FA03F20A43E262174BAC
:1039A0009C4204D0002380F83C30184623E0122DBE
:1039B00007D1134A536843F480035360F2E70220AF
:1039C00019E0104B9D4201D0112DEBD10C494A68F2
:1039D0009D4242F400024A60E4D10B4B0B4A1B6843
:1039E000B3FBF2F20A2353430193019B002BD9D07E
:1039F000019B013BF8E703B0F0BD00BF0020014090
:103A00000023014012000010A001002040420F00DE
:103A1000074AD36823F4E0631B041B0C43F0BF6325
:103A2000000243F4003300F4E0600343D3607047C6
:103A300000ED00E0174BDB68C3F3022330B5C3F1A0
:103A400007041D1D042C28BF0424062D4FF001057A
:103A500005FA04F404F1FF348CBF033B00230C404F
:103A60009C4005FA03F3013B1A40002842EA040295
:103A70004FEA0212AFBF00F1604000F00F00064BAA
:103A8000D2B2A5BF00F56140D2B21A5480F800232B
:103A900030BD00BF00ED00E014ED00E0420901235D
:103AA00000F01F0003FA00F0014B43F822007047BA
:103AB00000E100E00138B0F1807F0AD2064B074AEE
:103AC0005860F02182F823100020072298601A60C5
:103AD00070470120704700BF10E000E000ED00E0FB
:103AE000044B1A6804280CBF42F0040222F00402BE
:103AF0001A60704710E000E0704708B5FFF7FCFF60
:103B000008BD00000368DAB223F47F7323F00303D7
:103B10001821103AB2FBF1F20449032A88BF04339A
:103B2000895C8365C165806D704700BF3ADB010821
:103B300070B50446FFF724FD0546002C64D0002331
:103B400084F834302268022384F83530136823F077
:103B50000103136021680B68D80708D5FFF710FD33
:103B6000401B0528F6D920236365032051E00B682C
:103B7000294A6568A0691A40A3681D43E3681D438C
:103B800023691D4363692B43E56903432B43256A7E
:103B90002B431343626A042A01BF256BE66A35434F
:103BA0002B430B604B69042A23F0070343EA02030B
:103BB0001CD1A26A134320B9012A0BD013D3022AC5
:103BC00010E0B0F5005F0AD1032A0FD8DFE802F059
:103BD0001E0B1E02E26AB2F1C07F07D116E0022A74
:103BE00014D9032A02D1E26AD2010FD44B612046D4
:103BF000FFF788FFE26D3F2393408360002001239D
:103C0000606584F8353070BD012070BD4023636568
:103C1000012084F8350070BD3F8010F038B50546AE
:103C2000E8B190F83540E4B2022C1AD003681A6863
:103C300022F001021A60002421221C605C609C605A
:103C4000DC601C615A61FFF75DFFEA6D3F23934022
:103C500083606C6585F8344085F8354001E00120CB
:103C600038BD204638BD70B590F83440012C38D0AE
:103C7000012480F8344090F83540866D012C4FF0D7
:103C800000054FF0020428D180F8354004684565EE
:103C9000256825F48025256063608368402B0EBF6E
:103CA000A260A160E260C26D08BFE1603F23934063
:103CB000B360236843F016032360636943F0800315
:103CC0006361036C1BB1236843F00803236023681E
:103CD00043F001032360002070BD80F8345020467B
:103CE00070BD022070BD70B50446856DFFF748FCBD
:103CF00094F83530022B064606D0802363650023F6
:103D000084F83430012070BD23681A6822F016024E
:103D10001A605A6922F080025A61226C0AB9A26CB8
:103D20001AB11A6822F008021A601A6822F0010219
:103D30001A602368186810F001000DD0FFF720FC0E
:103D4000801B0528F5D9202363650320002384F810
:103D5000343084F8350070BDE26D3F239340AB6092
:103D6000012384F8340084F8353070BD90F8353084
:103D7000022B03D08023436501207047026805238E
:103D800080F83530136823F001031360002070477A
:103D9000F7B500230193856D594BC26D1F682E68DE
:103DA000082393401E4204460CD00168086840076F
:103DB00008D5086820F004000860AB60636D43F02C
:103DC000010363654F4B93401E4208D02168496947
:103DD000090641BFAB60636D43F0020363654A4B64
:103DE00093401E4208D021680968880741BFAB6034
:103DF000636D43F004036365102303FA02F2164275
:103E000017D023681968090713D5AA601A685003E8
:103E100004D51B68190308D5A36C07E01A68D205FE
:103E20005EBF1A6822F008021A60236C0BB12046AC
:103E30009847E16D20228A4016423BD023681868DB
:103E4000C60637D5AA6094F83520052A1A6819D114
:103E500022F016021A605A6922F080025A61226C1E
:103E60000AB9A26C1AB11A6822F008021A603F233C
:103E70008B40AB60002384F83430012384F8353064
:103E8000236D37E0500304D51B6819030ED4636C0F
:103E90000DE01A6812F4807208D1196821F010013F
:103EA0001960012384F8342084F83530E36B0BB1BA
:103EB00020469847636D03B3636DDA0719D5052370
:103EC000226884F83530136823F0010313604FF43F
:103ED0001653B7FBF3F7019B01339F42019302D3C3
:103EE0001368DB07F7D4002384F83430012384F807
:103EF0003530E36C0BB12046984703B0F0BD00BFEE
:103F0000A0010020010080000400800010B50446DC
:103F100030B390F8393003F0FF021BB980F8382035
:103F200002F05AFD022384F8393023681A6822F41B
:103F3000403162680A431A605A6B22F00701A26896
:103F40000A435A631A6CE16822F47F5222F03F025E
:103F50000A431A6400200123E06384F8393010BD5D
:103F6000012010BD2DE9F04F704F0B68DFF8C4C180
:103F7000DFF8C48185B000220193BE460124019B75
:103F8000944034EA030340F0C9804D6825F0100ADC
:103F9000BAF1020F14D14FEAD20900EB890902F0FD
:103FA000070BD9F820604FEA8B0B0F2303FA0BF3B2
:103FB00026EA03060B6903FA0BF33343C9F82030F2
:103FC0004FEA420B4FF00309036809FA0BF96FEA55
:103FD000090905F0030603EA090306FA0BF60AF1DC
:103FE000FF3A3343BAF1010F03600FD88368CE68FC
:103FF00009EA030306FA0BF61E4386604368C5F31D
:10400000001623EA0403964033434360C36809EA79
:1040100003098B6803FA0BF343EA0903C360EB005F
:104020007CD500230393DCF84460414B46F4804682
:10403000CCF84460DCF8446022F0030909F18049BF
:1040400006F4804609F59C39039602F0030A039EA4
:10405000D9F808B04FEA8A0A0F2606FA0AF69842FB
:104060002BEA060624D003F58063984222D003F59C
:104070008063984220D003F5806398421ED003F5F8
:10408000806398421CD040451CD003F500639842E1
:104090001AD003F58063984218D003F580639842E4
:1040A00016D003F58063984214BF0A23092310E059
:1040B00000230EE001230CE002230AE0032308E0C2
:1040C000042306E0052304E0062302E0072300E0C2
:1040D000082303FA0AF33343C9F808303B68E64380
:1040E00015F4803F0CBF33402343CEF80030DEF898
:1040F000043015F4003F0CBF334023437B60BB68A2
:1041000015F4801F0CBF33402343CEF80830DEF88F
:104110000C30AD0254BF33402343FB600132102A00
:104120007FF42CAF05B0BDE8F08F00BF003C01402C
:1041300000000240003802400014024002B90904A5
:104140008161704743695940416170470268536912
:1041500013F480630DD06FF4806353610423036410
:1041600020220023036380F83C3080F83D200120AA
:104170007047184670472DE9F843089C05460E46DF
:1041800090461F46C1F307492B68B9F1010F0CBFD8
:1041900058699869C04380B230420CBF01230023A4
:1041A000434512D17B1CEFD04FB9002320222B6353
:1041B00085F83C3085F83D200320BDE8F883FFF703
:1041C000DFF9001B8742DFD2EFE70020BDE8F8836C
:1041D0002DE9F84304460E4617469946C1F30748B1
:1041E0002568B8F1010F0CBF6869A869C04380B2A7
:1041F000304214BF0120002048B36B695A0512D524
:104200002B6843F400732B606FF480636B610423AD
:10421000236420220023236384F83C3084F83D206B
:104220000120BDE8F8837B1CDAD04FB9002320229F
:10423000236384F83C3084F83D200320BDE8F883F4
:10424000FFF79EF9C9EB00008742C9D2EEE7BDE84F
:10425000F88370B504460D46164623685B695B0714
:1042600019D42046FFF772FFB8B96A1CF5D065B9BA
:10427000236C43F02003236420220023236384F86B
:104280003C3084F83D20032070BDFFF779F9801B96
:104290008542E2D2ECE7002070BD012070BD70B510
:1042A00004460D4616462068436913F0400321D1A9
:1042B0004269D2060BD56FF01002426120222364BE
:1042C00084F83C302363012084F83D2070BD5DB943
:1042D000236C43F020032364202384F83D30002323
:1042E00084F83C30032070BDFFF74AF9801B8542FB
:1042F000D9D2EDE7002070BD70B504460D461646D4
:1043000023685B691B0619D42046FFF71FFFB8B965
:104310006A1CF5D065B9236C43F020032364202286
:104320000023236384F83C3084F83D20032070BDD3
:10433000FFF726F9801B8542E2D2ECE7002070BD32
:10434000012070BD2DE9FF41154602680B9E98467D
:10435000136843F4807313600F4600960A9B002293
:104360004FF001110446FFF706FF68B923680A9A67
:104370001B4907F0FE071F6120463346FFF728FF61
:1043800020B1236C042B27D0032026E02368039060
:104390005A6903929B69039332460A99039B20460C
:1043A000FFF7AAFF58B9B8F1010F236811D02A0A04
:1043B0001A610A9932462046FFF79EFF40B1236CEE
:1043C000042BE1D12268136843F40073136003E007
:1043D0002368EDB21D6100E0012004B0BDE8F0816A
:1043E000020001002DE9FF41984603680B9D164627
:1043F0001A6842F480621A601A6842F480721A6085
:104400000F4600950A9B00224FF001110446FFF76A
:10441000B2FE002836D123682D49FFB207F0FE0214
:104420001A6120462B460A9AFFF7D2FE18B1236C78
:10443000042B27D130E0236803905A6903929B69CB
:1044400003932A460A99039B2046FFF755FFD8B9E4
:10445000B8F1010F236821D1F6B21E612A460A99EC
:104460002046FFF749FF024670B921680B6843F404
:1044700080730B60204600950A9B4FF00111FFF7F7
:104480007AFEB0B1032020E0236C042BFAD122681D
:10449000136843F400731360012016E0320A1A61B6
:1044A0000A992A462046FFF727FF0028ECD1236807
:1044B000D2E723680A9A064947F001071F612046A0
:1044C0002B46FFF785FE0028B1D104B0BDE8F0818E
:1044D000020001007047000070B50446002863D058
:1044E00090F83D3003F0FF021BB980F83C20FFF745
:1044F000F1FF22682D4D242384F83D30136823F00A
:104500000103136000F008FF636822682849B0FBCC
:10451000F1F1AB422E4688BF4FF49675516082BFD1
:1045200069434FF47A75B1FBF5F1B34201F1010132
:10453000116208D85B00B0FBF3F0C0F30B03032B50
:1045400098BF042016E0A16849B903EB4303B0FB10
:10455000F3F0C0F30B0363B140F400400AE019210B
:104560004B43B0FBF3F0C0F30B0313B140F44040F6
:1045700000E00120E169236AD0610B4313602169E7
:10458000E3680B4393606169A3690B43D3601368CD
:1045900043F00103136000202023206484F83D30A1
:1045A000206384F83E0070BD012070BDA08601002C
:1045B00040420F00704710B5044698B102682423AA
:1045C00080F83D30136823F001031360FFF7F2FF1A
:1045D0000020206484F83C0084F83D00206384F8C7
:1045E0003E0010BD012010BD2DE9F04F044685B0FE
:1045F0009B46039192460E9FBDF83C60FEF7C0FFBC
:1046000094F83D30202B804601D0022069E00090D4
:104610001923012234492046FFF7ADFD81460028C9
:10462000F3D194F83C30012BEFD022680399136842
:10463000012523F4006384F83C501360212384F89F
:104640003D30402384F83E30284B2064E362109BC9
:104650000093CDF804805B4652462046FFF772FE79
:10466000B8B1236C84F83C90042B01D1284638E083
:10467000032036E0FFF740FE88B922683B781361DB
:104680005069731E400707F101019BB211D41E4609
:104690000F46424610992046002EEBD111E0236CC4
:1046A000042BE5D12268136843F4007313600120E2
:1046B00017E0002BEBD07B781361023EB91CB3B23C
:1046C000E5E7FFF7C6FD0028E9D12268136843F447
:1046D00000731360202384F83D3084F83C6084F834
:1046E0003E6005B0BDE8F08F020010000000FFFF43
:1046F0002DE9F04F044689B09B4602910392129E29
:10470000BDF84C50DDF85080FEF73AFF94F83D308C
:10471000202B074602D04FF0020BD5E00090192362
:1047200001226B492046FFF726FD81460028F2D181
:1047300094F83C30012BEED02268029913684FF0B8
:10474000010A23F4006384F83CA01360222384F858
:104750003D30402384F83E305E4B20640197E36295
:10476000CDF800805B46039A2046FFF73BFE834668
:1047700030B1236C84F83C90042B43D1D346A3E0A2
:10478000236855B904905A6904929A690492049A6C
:104790001A6842F400721A608EE0012D0ED11A6878
:1047A00022F480621A6005905A6905929A6905920E
:1047B000059A1A6842F400721A6016E0022D0ED1B2
:1047C0001A6822F480621A601A6842F400621A6061
:1047D00006905A6906929B690693069B05E007902E
:1047E0005A6907929B690793079B032D4AD8012DAD
:1047F00012D13A4641462046FFF751FD40B1236CA5
:10480000202B02D14FF0030B5EE04FF0010B5BE079
:1048100023681B6933704FE0022D009743464FF029
:1048200000022D4920460ED1FFF7A5FC0028E9D152
:1048300023681A6842F400721A601B693370236897
:104840001B69737038E0FFF796FC02460028D9D147
:104850002368196821F4806119601B6933701E494F
:10486000009743462046FFF786FC0028CAD12368FC
:104870001A6842F400721A601B69737023681B691E
:10488000B37019E03A4641462046FFF708FD00287C
:10489000B5D123681B69337023685A69520751BF29
:1048A00005F1FF35023D1B69737055BFADB2ADB266
:1048B00001360236002D98D1202384F83D300023A4
:1048C00084F83E3084F83C30584609B0BDE8F08F9B
:1048D000020010000000FFFF0400010090F83D00FE
:1048E00070472DE9F04304684F68E568D1F800C0CF
:1048F00004F1840ED20102EB0E03C5F30B45586898
:1049000000F470405860E068EE19C0F30B400CF101
:104910000105284440EA06405860E068CD68C0F3CD
:104920000A00461998688D6800F470409860E46841
:10493000681CC4F30A04204440EA064098601869E1
:104940000E698D6920F0070018614FF000081E61A4
:10495000986991F8314091F83290C3F8188091F835
:10496000300040EA056545EA042444EA09449C61B4
:10497000586920F0FF00586148695861D86920F4EF
:10498000E06020F00700D861CD690C6A2C43DC613F
:10499000986A486AC3F8288098624EB1012E09D0FF
:1049A000B01E022808D9072E0CBF0220012004E007
:1049B000042002E0032000E00220DC6A04F0E0248E
:1049C000DC628C6AC96ACCEB070744437843033046
:1049D00040EA0440D862186B20F4FF6020F0070022
:1049E0001863196352F80E3043F0010342F80E3099
:1049F000BDE8F08338B5044600286AD090F8A130AD
:104A000003F0FF021BB980F8A02001F0F7FF02239A
:104A100084F8A13023689A6922F070429A619969FA
:104A200062681143A2681143E268114322690A4394
:104A30009A619968284A0A409A609868A2696169EF
:104A4000024342EA01429A60D968234A0A40DA6086
:104A5000D868226AE169024342EA0142DA601969D0
:104A60001D4A0A401A611869A26A616A024342EA51
:104A700001421A615969184A0A405A615869E16A43
:104A8000226B024342EA01425A61D96A94F8360025
:104A900094F8352001F07F41D962D96A94F83450F6
:104AA000294341EA022242EA0042DA625A6B42F0AA
:104AB00004025A635A6B42F002025A639A6942F046
:104AC00001029A6100200123C4F8A40084F8A130F7
:104AD00038BD012038BD00BF00F800F010B5044615
:104AE00002F02EF80020C4F8A40084F8A00084F896
:104AF000A10010BD7047704703689A6B510710B54D
:104B0000044615D59A6B520712D55A6B22F004024F
:104B10005A630422DA63D0F8A43043F00103C0F8EA
:104B2000A430002380F8A12080F8A030FFF7E2FF36
:104B300023689A6B900716D59A6B910713D55A6B19
:104B400022F002025A630222DA63D4F8A43013433B
:104B5000C4F8A430042384F8A130002384F8A030E2
:104B60002046FFF7C7FF23689A6BD20710D59A6BD0
:104B7000D0070DD55A6B22F001025A630122DA6385
:104B8000002384F8A12084F8A030204601F0E4FF3F
:104B900023689A6B110711D59A6B12070ED55A6BC1
:104BA00022F008025A630822DA63012384F8A13054
:104BB000002384F8A0302046FFF79DFF10BDF8B514
:104BC00090F8A030012B06468E4694464FF0020026
:104BD0001DD0012786F8A07086F8A10034240D4668
:104BE00004FB02640FCD38340FC40FCD0FC40FCDBA
:104BF0000FC42B682360304662467146FFF771FE92
:104C0000336800205F6286F8A17086F8A000F8BDC6
:104C100090F8A030012B10B54FF0020312D00468B9
:104C200080F8A13004F1840303EBC212D36803F0CF
:104C30007F43D3600123D160636280F8A1300023F9
:104C400080F8A030184610BDF0B590F8A040012CB7
:104C50004FF002042ED0012580F8A050342580F8B2
:104C6000A140DF01002405FB030394421AD09D6C90
:104C7000062D51F8245015BF31F8246004EB0416BA
:104C800005F47F0525F07F4514BF354345EA0665E9
:104C9000066806F184063E4418BF45EA046535649B
:104CA0000134E2E7012380F8A130002380F8A0302E
:104CB0001846F0BD2046F0BD90F8A030012B10B58D
:104CC0004FF0020310D0026880F8A13002F1840492
:104CD000C901635843F0020363500123536280F813
:104CE000A130002380F8A030184610BD90F8A03005
:104CF000012B10B54FF0020310D0026880F8A130EC
:104D000002F18404C901635823F0020363500123B4
:104D1000536280F8A130002380F8A030184610BDFF
:104D200090F8A030012B10B54FF0020310D00268AC
:104D300080F8A13002F18404C901635843F01003E4
:104D400063500123536280F8A130002380F8A03023
:104D5000184610BD2DE9F041174690F8A020012A11
:104D600005464FF0020420D080F8A14034245C4373
:104D700006194FF0010880F8A080326EB16311442B
:104D8000726EF163376404F13801174401441A4626
:104D90007764FFF7A6FD2B680020C3F8248085F810
:104DA000A18085F8A000BDE8F0812046BDE8F08133
:104DB00090F8A030012B70B54FF00203044615D0D7
:104DC00080F8A13034235343C618012580F8A05041
:104DD000F16403F138010144FFF783FD23680020EB
:104DE0005D6284F8A15084F8A00070BD184670BDC3
:104DF00090F8A030012B70B54FF00203044615D097
:104E000080F8A13034235343C618012580F8A05000
:104E1000F16503F138010144FFF763FD23680020C9
:104E20005D6284F8A15084F8A00070BD184670BD82
:104E300090F8A030012B4FF002030ED0026880F8EA
:104E4000A130536B43F001035363054B19640123F5
:104E500080F8A130002380F8A0301846704700BFCA
:104E60000068014003682DE9F3410446D80703D4E4
:104E70002368990737D487E0A74B9A6802F00C02A1
:104E8000042A07D09A6802F00C02082A0BD15B684A
:104E90005A0208D5A04B1B689B03E9D56368002B19
:104EA000E6D1012034E19D4B22791A7063686BB121
:104EB000FEF766FB984D06462B689F03D8D4FEF795
:104EC0005FFB801B6428F7D9032021E1FEF758FB24
:104ED000914D06462B689803CAD5FEF751FB801BFF
:104EE0006428F7D9F0E78C4B9A6812F00C0F07D0C2
:104EF0009A6802F00C02082A17D15B68590214D490
:104F0000854B1A68920702D5E268012AC9D11A684E
:104F1000F82191FAA1F12069B1FA81F100FA01F1C9
:104F200022F0F8020A431A602EE0E2687C4BEAB1F4
:104F300001221A60FEF724FB774D06462B6876485F
:104F40009B0705D4FEF71CFB801B0228F6D9BBE7A4
:104F50000368F82292FAA2F22169B2FA82F201FA07
:104F600002F223F0F803134303600DE01A60FEF72A
:104F700007FB694D06462B689F0705D5FEF700FB2A
:104F8000801B0228F7D99FE723681E0703D42368F4
:104F90005D0745D51FE06269624B72B101221A605C
:104FA000FEF7EEFA5C4D06466B6F9807EFD4FEF7FE
:104FB000E7FA801B0228F7D986E71A60FEF7E0FAC5
:104FC000554D06466B6F9907E1D5FEF7D9FA801B60
:104FD0000228F7D978E7002301934F4B524D1A6C02
:104FE00042F080521A641B6C03F080530193019BC2
:104FF0002B6843F480732B60FEF7C2FA06462B68D9
:10500000DA0510D5494B227A1A70A368BBB1FEF7B6
:10501000B7FA414D064641F288372B6F9B0708D5FA
:10502000A269DAB959E0FEF7ABFA801B0228E6D98B
:105030004AE7FEF7A5FA801BB842EED944E7FEF72F
:105040009FFA354D064641F288372B6F9807E7D512
:10505000FEF796FA801BB842F7D935E72E4DAB68BC
:1050600003F00C03082B3FF41CAF314E0023022A3F
:10507000336041D1FEF784FA80462B68264F9901B0
:105080002DD447F6C07292FAA2F24FF44033B2FA2E
:1050900082FE93FAA3F34FF07062B3FA83F592FAAB
:1050A000A2F2E069236AB2FA82F1626A034302FA69
:1050B0000EF243EA0200A36A5A08013A02FA05F323
:1050C000E26A03438A4013437B6001233360FEF7A7
:1050D00057FA04463B689A0108D5002018E0FEF70D
:1050E0004FFAC8EB00000228C7D9EDE6FEF748FAF0
:1050F000001B0228EED9E7E6FEF742FA04462B68C9
:105100009B01EAD5FEF73CFA001B0228F7D9DBE643
:1051100002B0BDE8F08100BF003802400238024012
:1051200000004742800E4742007000407038024045
:10513000600047421B498B6803F00C03042B2CD002
:10514000082B2CD148684B6800F03F0013F4800F07
:1051500047F6C0724B6892FAA2F247F6C071B2FAF3
:1051600082F201EA030121FA02F114BF0E4A0F4A4A
:10517000B2FBF0F00B4A00FB01F352684FF44030F1
:1051800090FAA0F002F44032B0FA80F022FA00F077
:1051900001304000B3FBF0F070470348704703480C
:1051A000704700BF0038024000127A000024F4006B
:1051B000554B1A6802F00F028A422DE9F04105466C
:1051C0000E460AD32968880711D55048836823F012
:1051D000F002AB681343836009E0CAB21A701B681F
:1051E00003F00F039942EDD00120BDE8F081C9071B
:1051F00006D4454B1A6802F00F02964251D357E08D
:105200006B68424A012B03D1126812F4003F08E098
:10521000991E0129126802D812F0007F01E012F0F5
:10522000020FE1D0394CA26822F003021343A360BD
:10523000FEF7A6F96B68012B074641F288380CD1BE
:10524000A36803F00C03042BD3D0FEF799F9C01B1D
:105250004045F5D90320BDE8F081022B0AD1A368AF
:1052600003F00C03082BC4D0FEF78AF9C01B40459D
:10527000F5D9EFE7032B0FD1A36803F00C030C2B38
:10528000B7D0FEF77DF9C01B4045F5D9E2E7FEF740
:1052900077F9C01B4045DDD8A36813F00C0FF6D199
:1052A000A7E7F2B21A701B6803F00F039E429BD16E
:1052B00029684A0706D51548836823F4E052EB684D
:1052C000134383600B0707D5104A2969936823F4B9
:1052D000604343EAC1039360FFF72CFF0B4BF022BE
:1052E0009B6892FAA2F2B2FA82F203F0F003D34082
:1052F000074AD35CD840074B18600020FEF70AF934
:105300000020BDE8F08100BF003C024000380240B0
:1053100042DB0108A0010020084B4FF4E0529B68DB
:1053200092FAA2F2B2FA82F203F4E053D340044AB2
:10533000D35C044A1068D840704700BF0038024070
:1053400042DB0108A0010020084B4FF460429B683B
:1053500092FAA2F2B2FA82F203F46043D340044A12
:10536000D35C044A1068D840704700BF0038024040
:1053700042DB0108A00100202DE9F34103689A07F0
:10538000044605D1236813F00C0F00F0D58057E0D8
:10539000A54DA64E00232B60FEF7F2F807463368B2
:1053A0001B0106D5FEF7ECF8C01B0228F7D9032035
:1053B00037E12068C70714D547F6C07191FAA1F10B
:1053C0004FF0E043B1FA81F193FAA3F3B3FA83F219
:1053D000636803FA01F1A3689340944A0B43C2F84F
:1053E000843086071DD5914E4FF0E043D6F88410E7
:1053F00093FAA3F3B3FA83F0E36862681B0643EA07
:10540000821201F0E043C34042EA0373C6F88430DD
:10541000D6F88C30E26923F01F03013A1343C6F833
:105420008C3001232B60FEF7ABF8804D06462B68CD
:105430001801A7D4FEF7A4F8801B0228F7D9B6E715
:105440007B4D7A4F00232B60FEF79AF880463B682D
:10545000764E9A0000F1888027687B0731D5D6F810
:1054600088204FF0E04191FAA1FC47F6C078BCFAE1
:105470008CFC98FAA8F84FF0706EB8FA88F89EFA8B
:10548000AEF0B0FA80FE91FAA1F1206900FA08F3BB
:10549000606902F0E04222FA0CF2B1FA81F100FAFE
:1054A0000EF0184302FA01F30343C6F88830D6F829
:1054B0008C30226A23F4F853013A43EA0223C6F8F7
:1054C0008C303E072FD5594F4FF07061D7F88820A8
:1054D00091FAA1FE47F6C07CBEFA8EFE9CFAACFCA7
:1054E000BCFA8CFC91FAA1F14FF0E040B1FA81F1E5
:1054F00090FAA0F02369B0FA80F6A06902F0706219
:1055000003FA0CF322FA0EF2B040184302FA01F348
:105510000343C7F88830D7F88C3023F44032636AED
:105520001343C7F88C3001232B60FEF729F83F4D59
:1055300006462B6898001FD52368990668D5002376
:1055400001933A4B3B4D1A6C42F080521A641B6C2B
:1055500003F080530193019B2B6843F480732B600D
:10556000FEF70EF8064613E0FEF70AF8C8EB000057
:1055700002287FF66CAF1AE7FEF702F8801B0228BC
:10558000D7D914E7FDF7FCFF801B02283FF60FAFC9
:105590002B68D905F6D5254D2B6F13F440730FD129
:1055A000A26A02F44073B3F5407F204B27D199687B
:1055B00021F4F81022F0704121F44071014321E000
:1055C000A26A02F440729342EAD02B6F1A4A012178
:1055D000116023F44073002111602B672B6FDA07F1
:1055E000DED5FDF7CDFF41F2883706462B6F9B07CE
:1055F000D6D4FDF7C5FF801BB842F7D9D7E6996826
:1056000021F4F8119960196FC2F30B020A431A676B
:10561000206810F010001FBF084B94F82C201A606F
:10562000002002B0BDE8F081680047420038024027
:105630007000474200700040400E4742E011474270
:10564000704710B50446B8B10379012B16D0012379
:105650000371437903F0FF0213B90271FFF7F0FF02
:10566000226802236371136843F00403136000206F
:1056700001236371207110BD012010BD022010BDF7
:10568000704738B50D460446C8B190F82C3003F089
:10569000FF021BB980F82D20FFF7F2FF022384F8E8
:1056A0002C30211D206800F0E7FF62682068294641
:1056B00001F023F8012384F82C30002038BD0120AC
:1056C00038BD38B5044690F82C00C0B202280D460B
:1056D0000DD0022384F82C30206801F05AF82B6892
:1056E000022B0CBF0523012384F82C30002038BD89
:1056F00010B5044690F82C00C0B2022809D002234D
:1057000084F82C30206801F06AF8012384F82C30EA
:10571000002010BD2DE9F041069E0446884617463C
:105720001D462268936838EA03030CBF0123002357
:105730009F4233D06B1CF5D04DB923685A6822F0D4
:10574000E0025A606268B2F5827F11D105E0FDF790
:1057500017FF801B8542E4D8EFE7A268B2F5004F3F
:1057600002D0B2F5806F03D11A6822F040021A60AD
:10577000A26AB2F5005F08D119684DF6FF720A40BF
:105780001A601A6842F400521A60012384F85130FA
:10579000002384F850300320BDE8F0810020BDE8EC
:1057A000F08113B50B460092802100220446FFF7DA
:1057B000B1FF20B1636D43F020036365032002B0A5
:1057C00010BD704710B50446002836D00023836210
:1057D00090F8513003F0FF021BB980F85020FFF71A
:1057E000F0FFA16860680843E1680843216902236B
:1057F0000843616984F8513023680843E1691A68F5
:105800000843216A22F040021A600843A269A16A93
:10581000084302F4007101431960120C616A02F03E
:1058200004020A435A60DA6922F40062DA61002055
:105830000123606584F8513010BD012010BD704710
:1058400010B5044680B10268022380F85130136815
:1058500023F040031360FFF7F2FF0020606584F837
:10586000500084F8510010BD012010BD2DE9FF410A
:105870001E4690F85030012B04460D46904600F02D
:105880009E80012380F85030FDF77AFE074694F899
:105890005100C0B2012840F08A80002D00F08880BD
:1058A000B8F1000F00F08480032384F85130002306
:1058B0006365A363A4F83680A387E38763642364E6
:1058C000A3682563B3F5004F2368A4F8348002BFB2
:1058D0001A6842F480421A601A6852065EBF1A685B
:1058E00042F040021A60E268B2F5006F62681ED1B1
:1058F00072B1E28E92B2012A03D109E0AEB1711CFD
:105900000ED1E38E9BB2D3B123689A689007F5D588
:1059100035F8022BDA60E38E013B9BB2E386F0E7B9
:10592000FDF72EFEC01B8642EBD8032040E0A2B15B
:10593000E28E92B2012A10D0E38E9BB24BB900974F
:105940003346012202212046FFF7E4FE0028ECD175
:1059500015E023689A68920707D515F8012B1A738A
:10596000E38E013B9BB2E386E6E7002EDDD0731C9D
:10597000E2D0FDF705FEC01B8642DDD8D5E73A46EA
:1059800031462046FFF70DFF18B120236365012043
:105990000EE0A36833B903932368DA6803929B6827
:1059A0000393039B606D003018BF012000E00220CC
:1059B000012384F85130002384F8503000E00220A5
:1059C00004B0BDE8F08190F851007047036A23F0FD
:1059D00001030362036A426870B584690D6824F0AC
:1059E0007304254323F002048B6823430C4CA0422C
:1059F00009D004F58064A04205D042604A68856100
:105A00004263036270BDCC684E6923F008032343F0
:105A10008C6922F44072344323F004032243ECE700
:105A200000000140036A23F480730362036A426842
:105A300030B5C4690D6824F073042C438D6823F4D9
:105A4000007343EA05230E4DA84209D005F5806591
:105A5000A84205D042604A68C461C263036230BD97
:105A6000CD6823F4006343EA05234D6922F44052D4
:105A700042EA05128D6923F4806342EA0512E9E7E0
:105A800000000140036A23F48053036230B5046AC6
:105A90004368C2690D6822F4E64242EA05228D6835
:105AA00024F4005444EA0534094DA84209D005F510
:105AB0008065A84205D043604B68C26103640462FC
:105AC00030BD4D6923F4804343EA8513F3E700BFFB
:105AD000000001400268022380F83930136843F067
